:020000040000FA
:040000001FEF00F0FE
:100008005B82FACF01F0FBCF02F0F2AA0EEF00F00C
:1000180010EF00F019EF00F0F2A415EF00F017EF61
:1000280000F019EF00F08CEC26F002C0FBFF01C0D5
:0A003800FAFF5B92110067EF25F05C
:100F00000020202020202020202020202020202001
:100F10000020204170726F7661646F2020202020B5
:100F200000202054657374616E646F20202020209F
:100F3000002020526570726F7661646F202020203F
:100F400000506F736963696F6E6520612050434282
:100F500000453A25303375204D3A252E33666D56BF
:100F600000202043616C696272616E646F2E2E00F6
:100F700041443A25752041523A25752000494E4694
:100F8000004E414E00696E66006E616E006C660038
:010F90000060
:100F9200000E00017B6F000E7A6F38C08CF039C0F2
:100FA2008DF03AC08EF03BC08FF08FBFDDEF07F0BF
:100FB200DBEF07F0F3EF07F0000E7B6F010E7A6FA5
:100FC2008CC003F08DC004F08EC005F08FC006F017
:100FD200E1EC26F003C08CF004C08DF005C08EF069
:100FE20006C08FF0000E0001936F000E926FE3C0F7
:100FF2007FF0E4C080F07A517B11D8A403EF08F0AF
:1010020005EF08F00CEF08F0E5A50AEF08F00CEF89
:1010120008F026EF08F07A517B11D8A413EF08F0FC
:1010220015EF08F01BEF08F0000E656F2B0E646FD2
:101032001FEF08F0000E656F2D0E646F64C068F13B
:10104200924B932B7F07D8A080078CC003F08DC0F2
:1010520004F08EC005F08FC006F022EC1EF00304EF
:101062000410D8A437EF08F039EF08F090EF08F039
:10107200BF0E3D6EFF0E3E6E3C503F6E406A3D50CD
:101082003F263E50402240500AE11A0E3F5CD8A053
:101092004DEF08F050EF08F0010E51EF08F0000E8E
:1010A2000001666F676B66516711D8B45BEF08F099
:1010B2005DEF08F06BEF08F0680E9225036E010EEB
:1010C2009321046E7D0E056E0F0E066E0AEC25F05E
:1010D20077EF08F0680E9225036E010E9321046EDD
:1010E200850E056E0F0E066E0AEC25F00001FD0E50
:1010F2007F27FF0E802336C013F037C014F0680E2E
:10110200156E010E166E7FC017F080C018F048EC05
:1011120021F013C036F014C037F0A0EF0DF08CC0F0
:1011220003F08DC004F08EC005F08FC006F022ECF3
:101132001EF003500410D8A4A1EF08F0A3EF08F0AA
:10114200E3EF08F0BF0E3D6EFF0E3E6E3C503F6E69
:10115200406A3D503F263E50402240500AE11A0E5E
:101162003F5CD8A0B7EF08F0BAEF08F0010EBBEF72
:1011720008F0000E0001686F696B68516911D8B4FC
:10118200C5EF08F0C7EF08F0D5EF08F0680E92251A
:10119200036E010E9321046E810E056E0F0E066E14
:1011A2000AEC25F077EF08F0680E9225036E010E27
:1011B2009321046E890E056E0F0E066E0AEC25F061
:1011C20077EF08F0000E0001946F000E956F800E0D
:1011D200966F3F0E976F000E916F000E906F8CC04E
:1011E20003F08DC004F08EC005F08FC006F0000E33
:1011F200076E000E086E000E096E000E0A6E65EC98
:1012020022F0D8B007EF09F009EF09F08CEF09F0EE
:1012120028EF09F094C011F095C012F096C013F0B7
:1012220097C014F0000E156E000E166E200E176E8B
:10123200410E186E76EC13F011C094F012C095F0C6
:1012420013C096F014C097F00001904B912B8CC004
:101252002AF08DC02BF08EC02CF08FC02DF0000E26
:10126200156E000E166E200E176E410E186E94C08B
:1012720011F095C012F096C013F097C014F076ECFE
:1012820013F011C02EF012C02FF013C030F014C0B2
:1012920031F0A0EC1DF0D8B051EF09F053EF09F096
:1012A2000BEF09F073EF09F094C003F095C004F05E
:1012B20096C005F097C006F0000E076E000E086E8D
:1012C200200E096E410E0A6E8BEC15F003C094F0ED
:1012D20004C095F005C096F006C097F00001900793
:1012E200D8A091078CC02AF08DC02BF08EC02CF0B4
:1012F2008FC02DF094C02EF095C02FF096C030F024
:1013020097C031F0A0EC1DF0D8A08AEF09F08CEF65
:1013120009F055EF09F03CC009F00A6ADAEC24F052
:1013220009500001816F81C07EF0670E8119D8A437
:101332009DEF09F09FEF09F0C5EF09F054505510E9
:10134200D8A4A6EF09F0A8EF09F0ACEF09F0000E5F
:10135200556E010E546E55BEB9EF09F0555006E1B7
:101362005404D8B0B7EF09F0B9EF09F0BFEF09F0B4
:10137200000E7D6F060E7C6FCEEF09F054C07CF03C
:1013820055C07DF0CEEF09F055BECAEF09F0CCEFA3
:1013920009F0B9EF09F0BFEF09F0670E8119D8A47F
:1013A200D5EF09F0D7EF09F006EF0AF091AFE5EFBC
:1013B20009F0FC0E905DFF0E9159D8A0E3EF09F001
:1013C200E5EF09F004EF0AF0FF0E3D6EFF0E3E6EF0
:1013D2007CC03FF07DC040F03D503F263E50402251
:1013E20090513F5C4050800A416E9151800A4158B1
:1013F200D8A0FEEF09F000EF0AF004EF0AF0660E43
:101402007E6F06EF0AF0650E7E6F7CC074F07DC0C1
:1014120075F0670E8119D8A411EF0AF013EF0AF0E4
:1014220023EF0AF0660E7E19D8A41AEF0AF01CEF19
:101432000AF025EF0AF091BF23EF0AF021EF0AF03C
:1014420025EF0AF0744B752B660E7E19D8A42CEF8B
:101452000AF02EEF0AF04EEF0AF091BF35EF0AF0D4
:1014620033EF0AF041EF0AF0000E946F000E956F11
:10147200800E966F3F0E976F000E916F000E906F69
:10148200670E8119D8B448EF0AF04AEF0AF04EEF1E
:101492000AF09051742791517523000E8B6F000E44
:1014A2008A6F8CC082F08DC083F08EC084F08FC0B2
:1014B20085F094C060F095C061F096C062F097C06C
:1014C20063F0DFEF0AF082C003F083C004F084C04F
:1014D20005F085C006F094C007F095C008F096C0EC
:1014E20009F097C00AF08BEC15F003C01CF004C0A1
:1014F2001DF005C01EF006C01FF099EC18F01CC0CC
:1015020086F01DC087F01EC088F01FC089F086C01B
:1015120003F087C004F088C005F089C006F01DEC16
:101522001DF003C078F004C079F082C02AF083C0B5
:101532002BF084C02CF085C02DF094C015F095C01E
:1015420016F096C017F097C018F086C011F087C049
:1015520012F088C013F089C014F076EC13F011C0B9
:101562002EF012C02FF013C030F014C031F0E5ECB1
:1015720025F02AC082F02BC083F02CC084F02DC04D
:1015820085F094C003F095C004F096C005F097C0B2
:1015920006F0000E076E000E086E200E096E410E58
:1015A2000A6E8BEC15F003C094F004C095F005C0F0
:1015B20096F006C097F000018A4B8B2B74518A5D1E
:1015C2008B51800A3D6E7551800A3D58D8A0ECEFD0
:1015D2000AF0EEEF0AF064EF0AF094C011F095C041
:1015E20012F096C013F097C014F0000E156E000EA4
:1015F200166EA00E176E400E186E76EC13F011C028
:1016020086F012C087F013C088F014C089F082C03F
:101612002AF083C02BF084C02CF085C02DF086C048
:101622002EF087C02FF088C030F089C031F0A0ECD6
:101632001DF0D8B01FEF0BF021EF0BF02CEF0BF0E9
:10164200000E0001866F000E876F000E886F000E7D
:10165200896F55EF0BF082C003F083C004F084C0A1
:1016620005F085C006F086C007F087C008F088C084
:1016720009F089C00AF065EC22F0D8A043EF0BF024
:1016820045EF0BF055EF0BF0000178B14BEF0BF08B
:101692004DEF0BF055EF0BF0000E866F000E876FCB
:1016A200000E886F000E896F8CC003F08DC004F0AD
:1016B2008EC005F08FC006F086C007F087C008F024
:1016C20088C009F089C00AF016EC11F003C082F05C
:1016D20004C083F005C084F006C085F060C094F0B9
:1016E20061C095F062C096F063C097F0650E00018C
:1016F2007E19D8B47FEF0BF081EF0BF087EF0BF080
:1017020090C076F091C077F08BEF0BF0000E776F00
:10171200000E766F000E736F000E726F000E716F07
:10172200000E706F000E8B6F000E8A6F86EF0CF04A
:1017320082C003F083C004F084C005F085C006F0C7
:1017420094C007F095C008F096C009F097C00AF05F
:101752008BEC15F003C01CF004C01DF005C01EF098
:1017620006C01FF099EC18F01CC086F01DC087F06F
:101772001EC088F01FC089F086C003F087C004F045
:1017820088C005F089C006F01DEC1DF003C078F09A
:1017920004C079F00001E5B9D1EF0BF0D3EF0BF003
:1017A200F0EF0BF078517911D8A4DAEF0BF0DCEFFF
:1017B2000BF0F0EF0BF0670E8119D8A4E3EF0BF0FA
:1017C200E5EF0BF0F0EF0BF077BFECEF0BF0EAEF89
:1017D2000BF0F0EF0BF0704B712B3AEF0CF07251F3
:1017E2007311D8A4F7EF0BF0F9EF0BF023EF0CF025
:1017F20077BF00EF0CF0FEEF0BF023EF0CF0680E5A
:101802009225D96E010E9321DA6E2E0EDF6E924B67
:10181200932B7F07D8A08007000E736F010E726FA3
:1018220023EF0CF0680E9225D96E010E9321DA6E29
:10183200300EDF6E924B932B7F07D8A08007700784
:10184200D8A0710770517111D8A42AEF0CF02CEFB7
:101852000CF013EF0CF0680E9225D96E010E932155
:10186200DA6E7851300FDF6E924B932B7F07D8A040
:10187200800782C02AF083C02BF084C02CF085C080
:101882002DF094C015F095C016F096C017F097C0D1
:1018920018F086C011F087C012F088C013F089C01A
:1018A20014F076EC13F011C02EF012C02FF013C01A
:1018B20030F014C031F0E5EC25F02AC082F02BC0E4
:1018C20083F02CC084F02DC085F094C003F095C045
:1018D20004F096C005F097C006F0000E076E000EE9
:1018E200086E200E096E410E0A6E8BEC15F003C0D5
:1018F20094F004C095F005C096F006C097F0000180
:101902007607D8A077078A4B8B2B74518A5D8B514F
:10191200800A3D6E7551800A3D58D8B093EF0CF0A5
:1019220095EF0CF0A3EF0CF093BFA1EF0CF09351E5
:1019320009E14B0E925DD8A0A1EF0CF0A3EF0CF0E1
:1019420099EF0BF072517311D8A4AAEF0CF0ACEF1F
:101952000CF0BDEF0CF0E5A9B1EF0CF0B3EF0CF019
:10196200BDEF0CF0680E9225D96E010E9321DA6E4E
:101972002E0EDF6E924B932B680E9225D96E010EBE
:101982009321DA6E000EDF6E650E7E19D8A4CCEFBD
:101992000CF0CEEF0CF07CEF08F0000E8B6F4F0EC8
:1019A2008A6F680E8A25D96E010E8B21DA6E000EBF
:1019B200DF6E000E7B6F000E7A6F91BFE5EF0CF0C9
:1019C200E3EF0CF0EDEF0CF0000E7B6F010E7A6F7F
:1019D200906D911FD8B0912B000E7D6F020E7C6F1F
:1019E2001EEF0DF08A07D8A08B07680E8A25D96EE4
:1019F200010E8B21DA6E90C003F091C004F0000E4C
:101A0200066E0A0E056E0DEC22F00350300FDF6EEB
:101A120090C003F091C004F0000E066E0A0E056E2F
:101A2200ABEC21F003C090F004C091F000017C0700
:101A3200D8A07D077F07D8A0800790519111D8A424
:101A420025EF0DF027EF0DF0F3EF0CF07DBF34EF33
:101A52000DF07D5106E17C05D8B032EF0DF034EF88
:101A62000DF0F3EF0CF08A07D8A08B077A517B11A7
:101A7200D8A43EEF0DF040EF0DF046EF0DF0000E52
:101A82006B6F2B0E6A6F4AEF0DF0000E6B6F2D0E0F
:101A92006A6F680E8A25D96E010E8B21DA6E6AC0D2
:101AA200DFFF7F07D8A080078A07D8A08B07BF0E69
:101AB2003D6EFF0E3E6E3C503F6E406A3D503F26EB
:101AC2003E50402240500AE11A0E3F5CD8A06CEF13
:101AD2000DF06FEF0DF0010E70EF0DF0000E6E6F56
:101AE2006F6B6E516F11D8A479EF0DF07BEF0DF093
:101AF20081EF0DF0000E6D6F650E6C6F85EF0DF0CE
:101B0200000E6D6F450E6C6F680E8A25D96E010E40
:101B12008B21DA6E6CC0DFFF7F07D8A08007680ECA
:101B22009225036E010E9321046E680E8A25056EBE
:101B3200010E8B21066E0AEC25F07CEF08F01200F4
:101B420044C0D9FF45C0DAFFDECFF6FFDDCFF7FF95
:101B5200F86A0800F550250AD8A4B2EF0DF0B4EFE8
:101B62000DF0F9EF10F044C0D9FF45C0DAFFDE2ACC
:101B7200000EDD22000E0001E46F000EE36FE3C0F1
:101B8200E5F0E4C0E6F054685568000EA16F000E5F
:101B9200A06F13EF0EF0E58144C0D9FF45C0DAFF14
:101BA200DE2A000EDD2213EF0EF0E583CDEF0DF0FD
:101BB200E585CDEF0DF0E587CDEF0DF0E589CDEFB1
:101BC2000DF0000EA16F010EA06F13EF0EF044C0D6
:101BD200D9FF45C0DAFFDECFF6FFDDCFF7FFF86AA7
:101BE2000800F550486E496A4950000AD8B4FCEF23
:101BF2000DF0E2EF0DF04850200AD8B4DCEF0DF002
:101C0200030AD8B4DFEF0DF0080AD8B4D9EF0DF00B
:101C1200060AD8B4CCEF0DF01D0AD8B4D6EF0DF0F9
:101C2200E2EF0DF0A051A111D8B41AEF0EF01CEFA3
:101C32000EF0E8EF0DF0E5A121EF0EF023EF0EF02C
:101C420024EF0EF0E59344C0D9FF45C0DAFFDECFA2
:101C5200F6FFDDCFF7FFF86A0800F5502A0AD8A48C
:101C620035EF0EF037EF0EF060EF0EF044C0D9FF03
:101C720045C0DAFFDE2A000EDD2246C0D9FF47C08A
:101C8200DAFFDFCF48F0020EDE26DFCF49F0000E8A
:101C9200DD2248C0D9FF49C0DAFFDECFE3F0DDCF55
:101CA200E4F0E4BF59EF0EF057EF0EF0A5EF0EF09F
:101CB200E581E36DE41FD8B0E42BA5EF0EF044C03C
:101CC200D9FF45C0DAFFDECF0AF0DDCF0BF050ECD2
:101CD2001CF00AC0E3F00BC0E4F077EF0EF044C052
:101CE200D9FF45C0DAFFDE2A000EDD22D00E486E93
:101CF200FF0E496E44C0D9FF45C0DAFFDECFF6FFC2
:101D0200DDCFF7FFF86A0800F5504A6E4B6A48507B
:101D12004A2649504B224B500AE10A0E4A5CD8A08F
:101D220095EF0EF098EF0EF0010E99EF0EF0000E07
:101D32000001A26FA36BA251A311D8A4A3EF0EF0CE
:101D4200A5EF0EF070EF0EF044C0D9FF45C0DAFFE8
:101D5200DECFF6FFDDCFF7FFF86A0800F5502E0A56
:101D6200D8A4B6EF0EF0B8EF0EF038EF0FF0000E79
:101D7200556E000E546E44C0D9FF45C0DAFFDE2A0C
:101D8200000EDD2244C0D9FF45C0DAFFDECFF6FFE8
:101D9200DDCFF7FFF86A0800F5502A0AD8A4D4EF7D
:101DA2000EF0D6EF0EF0F3EF0EF044C0D9FF45C0AF
:101DB200DAFFDE2A000EDD2246C0D9FF47C0DAFF75
:101DC200DFCF48F0020EDE26DFCF49F0000EDD2223
:101DD20048C0D9FF49C0DAFFDECF54F0DDCF55F05D
:101DE20038EF0FF044C0D9FF45C0DAFFDECF0AF06A
:101DF200DDCF0BF050EC1CF00AC054F00BC055F0D4
:101E02000AEF0FF044C0D9FF45C0DAFFDE2A000E08
:101E1200DD22D00E486EFF0E496E44C0D9FF45C088
:101E2200DAFFDECFF6FFDDCFF7FFF86A0800F550E4
:101E32004A6E4B6A48504A2649504B224B500AE19F
:101E42000A0E4A5CD8A028EF0FF02BEF0FF0010E1C
:101E52002CEF0FF0000E0001A46FA56BA451A51189
:101E6200D8A436EF0FF038EF0FF003EF0FF044C0B5
:101E7200D9FF45C0DAFFDECFF6FFDDCFF7FFF86A04
:101E82000800F550096E0A6ADAEC24F009500001E4
:101E9200AC6FAC51D8B450EF0FF052EF0FF08EEFA1
:101EA2000FF044C0D9FF45C0DAFFDECF48F0DDCFE6
:101EB20049F0010E4826000E492248C0F6FF49C0EB
:101EC200F7FFF86A0800F550096E0A6ADAEC24F0A6
:101ED20009500001AD6FAD51D8B472EF0FF074EF3D
:101EE2000FF08EEF0FF044C0D9FF45C0DAFFDECF0E
:101EF20048F0DDCF49F0020E4826000E492248C0C4
:101F0200F6FF49C0F7FFF86A0800F550096E0A6A41
:101F1200DAEC24F009500001AE6F660EAC19D8A4B9
:101F220095EF0FF097EF0FF0D8EF0FF044C0D9FF05
:101F320045C0DAFFDECFF6FFDDCFF7FFF86A080013
:101F4200F5CFAFF044C0D9FF45C0DAFFDE2A000E5C
:101F5200DD2246C0D9FF47C0DAFFDFCF48F0040ECA
:101F6200DE26DFCF49F0000EDD2248C0D9FF49C08E
:101F7200DAFFDECFA8F0DECFA9F0DECFAAF0DECF07
:101F8200ABF042C036F043C037F0A8C038F0A9C069
:101F920039F0AAC03AF0ABC03BF0AFC03CF0C9EC9C
:101FA20007F036C042F037C043F015EF11F0AC0E27
:101FB200036E000E046E8D0E056E0F0E066E000E81
:101FC200086E020E076E0DEC20F003500410D8A428
:101FD200EDEF0FF0EFEF0FF06DEF10F044C0D9FF0F
:101FE20045C0DAFFDECF48F0DDCF49F0010E4826CA
:101FF200000E492248C0F6FF49C0F7FFF86A080000
:10200200F5CFAFF0BF0E486EFF0E496E44C0D9FF48
:1020120045C0DAFFDECFF6FFDDCFF7FFF86A080032
:10202200F5504A6E4B6A48504A2649504B224B5053
:102032000AE11A0E4A5CD8A021EF10F024EF10F04A
:10204200010E25EF10F0000E0001A66FA76BA6513E
:10205200A711D8B42FEF10F031EF10F04BEF10F0C2
:1020620046C0D9FF47C0DAFFDFCF48F0040EDE26B4
:10207200DFCF49F0000EDD2248C0D9FF49C0DAFFA8
:10208200DECFA8F0DECFA9F0DECFAAF0DECFABF034
:1020920063EF10F046C0D9FF47C0DAFFDFCF48F048
:1020A200040EDE26DFCF49F0000EDD2248C0D9FF44
:1020B20049C0DAFFDECFA8F0DECFA9F0DECFAAF06A
:1020C200DECFABF0020E44C0D9FF45C0DAFFDE26F8
:1020D200000EDD22C2EF0FF044C0D9FF45C0DAFF87
:1020E200DECFF6FFDDCFF7FFF86A0800F550750A7C
:1020F200D8A47EEF10F080EF10F0C2EF10F044C0D1
:10210200D9FF45C0DAFFDE2A000EDD2246C0D9FF24
:1021120047C0DAFFDFCF48F0020EDE26DFCF49F0FC
:10212200000EDD2248C0D9FF49C0DAFFDECF4AF0F7
:10213200DDCF4BF04AC098F04BC099F000019A6B8A
:102142009B6B9C6B9D6B9E6B9F6B42C01EF043C052
:102152001FF098C020F099C021F09AC022F09BC0D5
:1021620023F09CC024F09DC025F09EC026F09FC0A5
:1021720027F0A2EC19F01EC042F01FC043F015EF89
:1021820011F044C0D9FF45C0DAFFDECFF6FFDDCF44
:10219200F7FFF86A0800F550250AD8A4D3EF10F02B
:1021A200D5EF10F0ECEF10F044C0D9FF45C0DAFFD4
:1021B200DE2A000EDD22000E046E250E036E42C0E2
:1021C20005F043C006F0E3EC20F0000E436E010E72
:1021D200426E15EF11F044C0D9FF45C0DAFFDE2A86
:1021E200000EDD22000E436E000E426E15EF11F05E
:1021F20044C0D9FF45C0DAFFDECFF6FFDDCFF7FFDF
:10220200F86A0800F550036E046A42C005F043C044
:1022120006F0E3EC20F044C0D9FF45C0DAFFDE2A25
:10222200000EDD22E6EF10F012000650800B0F6E5A
:1022320006500624116E05AE21EF11F023EF11F0C6
:1022420024EF11F011801150D8B42AEF11F02CEFC5
:1022520011F041EF11F01128D8A432EF11F034EF50
:1022620011F03CEF11F0000E036E000E046E000E32
:10227200056E000E066E058E000E066E49EF11F019
:10228200000E036E000E046E000E056E000E066E4A
:102292000A50800B106E0F501018D8B453EF11F083
:1022A20055EF11F056EF11F00F8C0A500A24106E00
:1022B20009AE5EEF11F060EF11F061EF11F01080E6
:1022C2001050D8B467EF11F069EF11F07EEF11F002
:1022D2001028D8A46FEF11F071EF11F079EF11F01F
:1022E200000E076E000E086E000E096E000E0A6EDA
:1022F200098E000E0A6E86EF11F0000E076E000EB8
:10230200086E000E096E000E0A6E1150105CD8B0F5
:102312008DEF11F08FEF11F0B6EF11F00FAC94EFDB
:1023220011F096EF11F098EF11F0800E0F1A11C014
:1023320012F010C011F012C010F003C012F007C06A
:1023420003F012C007F004C012F008C004F012C07B
:1023520008F005C012F009C005F012C009F006C06D
:1023620012F00AC006F012C00AF0000E126E1150EE
:1023720010C00BF00C6A0B5E000E0C5A0CBECBEFB9
:1023820011F00C5009E11A0E0B5CD8A0CBEF11F042
:10239200CDEF11F004EF12F00350041005100610F7
:1023A200D8A4D6EF11F0D9EF11F0010EDAEF11F047
:1023B200000E126E000E036E000E046E000E056E0D
:1023C200000E066E10C011F00DEF12F012A0ECEF2D
:1023D20011F0EEEF11F0F4EF11F0D8901230010984
:1023E200126EF6EF11F0D890123203A0FBEF11F04B
:1023F200FDEF11F0FEEF11F0128E063406320532B7
:1024020004320332112A1050115CD8A00BEF12F0E3
:102412000DEF12F0E7EF11F00FBC12EF12F014EF14
:1024220012F054EF12F01150D8A41AEF12F01CEF70
:1024320012F026EF12F0000E036E000E046E000E74
:10244200056E000E066E75EF13F007500326085056
:102452000422095005220A50062206A033EF12F088
:1024620035EF12F0E1EF12F012A03AEF12F03CEF6A
:1024720012F042EF12F0D89012300109126E44EFBE
:1024820012F0D890123203A049EF12F04BEF12F083
:102492004CEF12F0128E0634063205320432033249
:1024A200112AE1EF12F00750035C0850045809505A
:1024B20005580650800A0B6E0A50800A0B58D8B095
:1024C20065EF12F067EF12F092EF12F00350075C23
:1024D2000B6E045008580C6E055009580D6E0650CC
:1024E2000A580E6EFF0E0B24036EFF0E0C20046EB4
:1024F200FF0E0D20056EFF0E0E20066E800E0F1AC7
:10250200126C1250D8A488EF12F08AEF12F09AEFF0
:1025120012F0010E0326000E0422052206229AEF73
:1025220012F00750035E0850045A0950055A0A5027
:10253200065A0350041005100610D8A4A3EF12F097
:10254200A5EF12F0DAEF12F01250D8A4ABEF12F0AE
:10255200ADEF12F0DAEF12F0000E036E000E046E11
:10256200000E056E000E066E75EF13F0D89003365E
:1025720004360536063612AEC1EF12F0C3EF12F082
:10258200C4EF12F0038012A0C9EF12F0CBEF12F0E9
:10259200CFEF12F0D8801236D1EF12F0D890123667
:1025A2001150D8B4D7EF12F0D9EF12F0DAEF12F0DF
:1025B200110605AEDFEF12F0E1EF12F0B7EF12F005
:1025C200000E106E12AEE8EF12F0EAEF12F002EF18
:1025D20013F012C00BF07F0E0B16D8B4F3EF12F00B
:1025E200F5EF12F0F9EF12F0010E106E02EF13F098
:1025F20003A0FEEF12F000EF13F002EF13F0F5EF7D
:1026020012F01050D8B408EF13F00AEF13F035EFC0
:1026120013F0010E0326000E04220522062206A054
:1026220015EF13F017EF13F035EF13F003C00BF0B3
:1026320004C00CF005C00DF006C00EF00E340E32D0
:102642000D320C320B320BC003F00CC004F00DC083
:1026520005F00EC006F01128D8B432EF13F034EFB3
:1026620013F035EF13F0112A1128D8B43BEF13F011
:102672003DEF13F045EF13F01150D8A443EF13F0E0
:1026820045EF13F057EF13F0000E036E000E046EC9
:10269200000E056E000E066E1150D8A453EF13F013
:1026A20055EF13F057EF13F0000E0F6E11A05CEF11
:1026B20013F05EEF13F061EF13F0058E62EF13F08B
:1026C200059ED8901130066E0FAE6AEF13F06CEFD4
:1026D20013F06DEF13F0068E03C003F004C004F094
:1026E20005C005F006C006F012001450800B1D6EE6
:1026F20014501424236E13AE81EF13F083EF13F002
:1027020084EF13F023802350D8B48AEF13F08CEFB8
:1027120013F09FEF13F02328D8A492EF13F094EF55
:1027220013F09CEF13F0000E116E000E126E000EED
:10273200136E000E146E138EA7EF13F0000E116EBF
:10274200000E126E000E136E000E146E1850800BE7
:102752001D1A18501824226E17AEB2EF13F0B4EF00
:1027620013F0B5EF13F022802250D8B4BBEF13F070
:10277200BDEF13F0D0EF13F02228D8A4C3EF13F06B
:10278200C5EF13F0CDEF13F0000E156E000E166EAE
:10279200000E176E000E186E178ED8EF13F0000E93
:1027A200156E000E166E000E176E000E186E225079
:1027B200D8B4DEEF13F0E0EF13F0E8EF13F023509C
:1027C200D8A4E6EF13F0E8EF13F0F2EF13F0000EE7
:1027D200116E000E126E000E136E000E146E8AEF52
:1027E20015F017501102F3CF28F0F4CF29F028503A
:1027F2001E6E1F6A206A216A2950246E256A266A83
:10280200276A16501202F3CF28F0F4CF29F028508D
:102812001E26000E1F222022212229502426000ECD
:1028220025222622272215501302F3CF28F0F4CFB7
:1028320029F028501E26000E1F2220222122295074
:102842002426000E25222622272220C021F01FC086
:1028520020F01EC01FF01E6A15501202F3CF28F09E
:10286200F4CF29F028501E2629501F22000E2022C4
:10287200000E212216501102F3CF28F0F4CF29F0D6
:1028820028501E2629501F22000E2022000E21222F
:1028920020C021F01FC020F01EC01FF01E6A15507C
:1028A2001102F3CF28F0F4CF29F028501E26295028
:1028B2001F22000E2022000E212217501202F3CFF7
:1028C20028F0F4CF29F02850242629502522000E82
:1028D2002622000E272216501302F3CF28F0F4CF3F
:1028E20029F02850242629502522000E2622000EE7
:1028F200272217501302F3CF28F0F4CF29F02850E3
:10290200196E29501A6E1B6A1C6A1BC01CF01AC071
:102912001BF019C01AF0196A195024261A502522E0
:102922001B5026221C5027221EC019F01FC01AF06D
:1029320020C01BF021C01CF0190EA5EF14F0D89096
:102942001C321B321A321932E82EA0EF14F0195041
:1029520024261A5025221B5026221C50272220C032
:1029620021F01FC020F01EC01FF01E6A225023C09B
:1029720019F01A6A1926000E1A22820E1924286EDC
:10298200FF0E1A20296EDBEF14F0D890243625367C
:102992002636273621AED0EF14F0D2EF14F0D3EF63
:1029A20014F02480D8901E361F3620362136280691
:1029B200D8A0290626AEE0EF14F0E2EF14F0C6EF3D
:1029C20014F0000E226E21AEE9EF14F0EBEF14F0DA
:1029D2000FEF15F0FF0E1E14196EFF0E1F141A6E64
:1029E200FF0E20141B6E7F0E21141C6E19501A103C
:1029F2001B101C10D8B400EF15F002EF15F006EF13
:102A020015F0010E226E0FEF15F024A00BEF15F05A
:102A12000DEF15F00FEF15F002EF15F02250D8B4BC
:102A220015EF15F017EF15F03BEF15F0010E242608
:102A3200000E25222622272227A022EF15F024EFBE
:102A420015F03BEF15F024C019F025C01AF026C08E
:102A52001BF027C01CF01C341C321B321A321932F4
:102A620019C024F01AC025F01BC026F01CC027F0A4
:102A7200284A292A29BE46EF15F0295008E12828BC
:102A8200D8A046EF15F048EF15F052EF15F0000E02
:102A9200246E000E256E800E266E7F0E276E80EF4E
:102AA20015F029BE5FEF15F0295006E12804D8B0D1
:102AB2005DEF15F05FEF15F06BEF15F0000E246E71
:102AC200000E256E000E266E000E276E000E1D6E85
:102AD20080EF15F028C023F0FF0E2416FF0E2516F6
:102AE2007F0E2616000E271623A07AEF15F07CEF34
:102AF20015F07DEF15F0268ED8902330276E1D50ED
:102B0200271224C011F025C012F026C013F027C0EE
:102B120014F012000650800B136E065006241A6E33
:102B220005AE96EF15F098EF15F099EF15F01A80B3
:102B32001A50D8B49FEF15F0A1EF15F0B6EF15F0CB
:102B42001A28D8A4A7EF15F0A9EF15F0B1EF15F0E8
:102B5200000E036E000E046E000E056E000E066E71
:102B6200058E000E066EBEEF15F0000E036E000E0F
:102B7200046E000E056E000E066E0A50800B131ACC
:102B82000A500A241B6E09AEC9EF15F0CBEF15F0FF
:102B9200CCEF15F01B801B50D8B4D2EF15F0D4EF58
:102BA20015F0E9EF15F01B28D8A4DAEF15F0DCEFE9
:102BB20015F0E4EF15F0000E076E000E086E000E21
:102BC200096E000E0A6E098E000E0A6EF1EF15F004
:102BD200000E076E000E086E000E096E000E0A6EE1
:102BE2000750081009100A10D8A4FAEF15F0FCEFEC
:102BF20015F014EF16F0000E036E000E046E000EB8
:102C0200056E000E066E800E05127F0E0612135020
:102C1200061203C003F004C004F005C005F006C0AC
:102C220006F057EF17F01A50D8A41AEF16F01CEF5F
:102C320016F026EF16F0000E036E000E046E000E64
:102C4200056E000E066E57EF17F01B501AC00BF000
:102C52000C6A0B5E000E0C5A7F0E0B24146E000ED3
:102C62000C20156E03C00FF004C010F005C011F067
:102C720006C012F0000E036E000E046E000E056E0A
:102C8200000E066E000E166E000E176E000E186E07
:102C9200000E196E000E1B6E87EF16F01B50D8B493
:102CA20055EF16F057EF16F06EEF16F0D8900F367C
:102CB200103611361236D8900336043605360636EB
:102CC20019AE66EF16F068EF16F069EF16F00380A2
:102CD200D890163617361836193607500F5C08503A
:102CE2001058095011580A501258D8A07BEF16F00C
:102CF2007DEF16F086EF16F0198C07500F5E085024
:102D0200105A0950115A0A50125A1B2A190E1B64E2
:102D12008DEF16F08FEF16F04FEF16F00F501010E8
:102D220011101210D8B498EF16F09AEF16F0B2EF15
:102D320016F01680B2EF16F0D89003360436053638
:102D4200063619AEA7EF16F0A9EF16F0AAEF16F0A5
:102D52000380D89016361736183619361406D8A0BE
:102D6200150605AEB7EF16F0B9EF16F09DEF16F0A7
:102D7200000E1B6E19AEC0EF16F0C2EF16F0E6EFB2
:102D820016F0FF0E16140B6EFF0E17140C6EFF0ECC
:102D920018140D6E7F0E19140E6E0B500C100D10C0
:102DA2000E10D8B4D7EF16F0D9EF16F0DDEF16F00B
:102DB200010E1B6EE6EF16F003A0E2EF16F0E4EF51
:102DC20016F0E6EF16F0D9EF16F01B50D8B4ECEF80
:102DD20016F0EEEF16F012EF17F0010E0326000EBA
:102DE20004220522062206A0F9EF16F0FBEF16F0E8
:102DF20012EF17F003C00BF004C00CF005C00DF089
:102E020006C00EF00E340E320D320C320B320BC0F5
:102E120003F00CC004F00DC005F00EC006F0144A19
:102E2200152A15BE1DEF17F0155008E11428D8A079
:102E32001DEF17F01FEF17F02AEF17F0000E156EB7
:102E42001468000E036E000E046E000E056E000E76
:102E5200066E15BE37EF17F0155006E11404D8B010
:102E620035EF17F037EF17F045EF17F0000E156E3C
:102E7200000E146E000E036E000E046E000E056E40
:102E8200000E066E000E136E14C01AF01AA04CEF5C
:102E920017F04EEF17F051EF17F0058E52EF17F0C3
:102EA200059ED8901A30066E08EF16F01200D3EC89
:102EB20027F003C0CDF004C0CEF005C0CFF006C0AD
:102EC200D0F0F40E01014425DC6F010E4521DD6FC7
:102ED200000E4621DE6F000E4721DF6FDC5100013C
:102EE200CD5D0101DD510001CE590101DE5100012C
:102EF200CF590101DF510001D059D8A083EF17F05B
:102F020085EF17F098EF18F0CDC044F1CEC045F12F
:102F1200CFC046F1D0C047F1C405D8A493EF17F053
:102F220095EF17F0C4EF17F0C80EB06F010EB16F36
:102F3200610EB26F0F0EB36F93EC25F0010E0B6EA4
:102F4200C80E0C6E010E0D6E010EC6EC27F0B80E07
:102F52000001B06F010EB16F700EB26F0F0EB36F42
:102F620056C0B4F057C0B5F058C0B6F059C0B7F06B
:102F720093EC25F0010E0B6EB80E0C6E010E0D6E69
:102F8200020EC6EC27F00001C505D8A4CBEF17F05E
:102F9200CDEF17F0FCEF17F0C80EB06F010EB16F56
:102FA200410EB26F0F0EB36F93EC25F0010E0B6E54
:102FB200C80E0C6E010E0D6E010EC6EC27F0B80E97
:102FC2000001B06F010EB16F700EB26F0F0EB36FD2
:102FD20056C0B4F057C0B5F058C0B6F059C0B7F0FB
:102FE20093EC25F0010E0B6EB80E0C6E010E0D6EF9
:102FF200020EC6EC27F00001C605D8A403EF18F0B4
:1030020005EF18F038EF18F0C80EB06F010EB16F6F
:10301200210EB26F0F0EB36F93EC25F0010E0B6E03
:10302200C80E0C6E010E0D6E010EC6EC27F0B80E26
:103032000001B06F010EB16F510EB26F0F0EB36F80
:10304200EFC0B4F0F0C0B5F054C1B6F055C1B7F05E
:1030520056C1B8F057C1B9F093EC25F0010E0B6ED2
:10306200B80E0C6E010E0D6E020EC6EC27F00001BA
:10307200C705D8A43FEF18F041EF18F068EF18F039
:10308200C80EB06F010EB16F110EB26F0F0EB36F9B
:1030920093EC25F0010E0B6EC80E0C6E010E0D6E38
:1030A200010EC6EC27F0B80E0001B06F010EB16F31
:1030B200010EB26F0F0EB36F93EC25F0010E0B6E83
:1030C200B80E0C6E010E0D6E020EC6EC27F000015A
:1030D200C805D8A46FEF18F071EF18F098EF18F048
:1030E200C80EB06F010EB16F310EB26F0F0EB36F1B
:1030F20093EC25F0010E0B6EC80E0C6E010E0D6ED8
:10310200010EC6EC27F0B80E0001B06F010EB16FD0
:10311200010EB26F0F0EB36F93EC25F0010E0B6E22
:10312200B80E0C6E010E0D6E020EC6EC27F01200E8
:1031320038C12CF039C12DF03AC12EF03BC12FF02D
:103142001CC02CF01DC02DF01EC02EF01FC02FF091
:10315200810E206EFF0E216E2CC022F02DC023F0B6
:103162002EC024F02FC025F0180EBDEF18F0D89015
:103172002532243223322232E82EB8EF18F02250C0
:1031820020242A6E000E21202B6E2BBED2EF18F0C7
:103192002B5009E1170E2A5CD8A0D2EF18F0D4EF19
:1031A20018F0DEEF18F01CC01CF01DC01DF01EC090
:1031B2001EF01FC01FF0A1EF19F02BBEE3EF18F0B5
:1031C200E5EF18F055EF19F02AC020F0FF0E216E3E
:1031D200FF0E226E7F0E236E000E246E2066F4EF29
:1031E20018F0FCEF18F02434243223322232213238
:1031F200202EEFEF18F021C026F022C027F023C0C6
:1032020028F024C029F026502C14206E27502D14AB
:10321200216E28502E14226E29502F14236E205016
:10322200211022102310D8A419EF19F01BEF19F066
:103232001DEF19F0D4EF18F02CC020F02DC021F0B2
:103242002EC022F02FC023F0200E2DEF19F0D890BF
:103252002332223221322032E82E28EF19F0205078
:10326200211022102310D8B439EF19F03BEF19F0D6
:1032720043EF19F026502C2627502D2228502E22BB
:1032820029502F22261C206E271C216E281C226EFC
:10329200291C236E20502C1621502D1622502E163A
:1032A20023502F1699EF19F02CC020F02DC021F0D9
:1032B2002EC022F02FC023F0200E65EF19F0D89017
:1032C2002332223221322032E82E60EF19F02050D0
:1032D200211022102310D8A471EF19F073EF19F006
:1032E2007DEF19F0000E2C6E000E2D6E000E2E6E6C
:1032F200000E2F6E99EF19F0D8902C34206E2D34D9
:10330200216E2E34226E2F34236E20502110221073
:103312002310D8B48FEF19F091EF19F099EF19F04B
:10332200000E2C6E000E2D6E800E2E6EBF0E2F6EB6
:103332002CC01CF02DC01DF02EC01EF02FC01FF09F
:10334200120055BEA7EF19F0A9EF19F0ABEF19F073
:103352000001E59355BEB8EF19F0555006E154044B
:10336200D8B0B6EF19F0B8EF19F0BEEF19F0000EB1
:10337200316E010E306EC2EF19F054C030F055C0FC
:1033820031F0E3C032F0E4C033F020C034F021C0A9
:1033920035F022C036F023C037F024C038F025C003
:1033A20039F026C03AF027C03BF0000E3D6E4F0EBA
:1033B2003C6E000E0101B76F55EF1AF03C06D8A023
:1033C2003D06680E3C24D96E010E3D20DA6E34C0F3
:1033D20003F035C004F036C005F037C006F038C03F
:1033E20007F039C008F03AC009F03BC00AF00A0EF3
:1033F2000B6E000E0C6E000E0D6E000E0E6E000EA9
:103402000F6E000E106E000E116E000E126E7BEC2F
:1034120020F003C028F004C029F005C02AF006C03D
:103422002BF007C02CF008C02DF009C02EF00AC006
:103432002FF02850300FDF6E3006D8A0310632064A
:10344200D8A0330634C003F035C004F036C005F00E
:1034520037C006F038C007F039C008F03AC009F0AA
:103462003BC00AF00A0E0B6E000E0C6E000E0D6EC3
:10347200000E0E6E000E0F6E000E106E000E116E1C
:10348200000E126E95EC1FF003C034F004C035F04C
:1034920005C036F006C037F007C038F008C039F072
:1034A20009C03AF00AC03BF03C503D10D8B45CEF82
:1034B2001AF05EEF1AF08FEF1AF034503510361012
:1034C2003710381039103A103B10D8A46BEF1AF0AD
:1034D2006DEF1AF0DFEF19F031BE7AEF1AF03150CA
:1034E20006E13004D8B078EF1AF07AEF1AF0DFEF85
:1034F20019F033BE85EF1AF0335008E13204D8A038
:1035020085EF1AF087EF1AF08FEF1AF00001E5B39A
:103512008DEF1AF08FEF1AF0DFEF19F01EC013F0E3
:103522001FC014F0680E3C24156E010E3D20166E6D
:1035320032C017F033C018F048EC21F013C01EF06F
:1035420014C01FF012000B6E0B50D8B4ABEF1AF080
:10355200ADEF1AF0CFEF1AF006BEB4EF1AF0B2EFE9
:103562001AF0CFEF1AF003C007F004C008F005C04C
:1035720009F006C00AF0071E081E091E0A1E072AC5
:10358200000E082209220A2207C00DF008C00EF020
:1035920009C00FF00AC010F0D7EF1AF003C00DF007
:1035A20004C00EF005C00FF006C010F00350041066
:1035B20005100610D8A4E0EF1AF0E2EF1AF0ECEFD3
:1035C2001AF0000E036E000E046E000E056E000E61
:1035D200066E7DEF1BF0960E0C6EF6EF1AF00C2ABB
:1035E200D89010320F320E320D32000E0D14076ECB
:1035F200000E0E14086E000E0F14096EFE0E10144B
:103602000A6E0750081009100A10D8A40BEF1BF01D
:103612000DEF1BF0F0EF1AF01BEF1BF00C2A010E5E
:103622000D26000E0E220F221022D89010320F32D9
:103632000E320D32000E0D14076E000E0E14086EBF
:10364200000E0F14096EFF0E10140A6E07500810B8
:1036520009100A10D8A430EF1BF032EF1BF00FEF65
:103662001BF03AEF1BF00C06D8900D360E360F36D3
:1036720010360FBE3FEF1BF041EF1BF049EF1BF07E
:10368200020E0C6047EF1BF049EF1BF034EF1BF00A
:103692000CB04EEF1BF050EF1BF051EF1BF00F9EE2
:1036A200D8900C320CC007F0086A096A0A6A07C08F
:1036B2000AF0096A086A076A07500D1208500E12CA
:1036C20009500F120A5010120B50D8B46BEF1BF0B6
:1036D2006DEF1BF075EF1BF006BE74EF1BF072EF7F
:1036E2001BF075EF1BF0108E0DC003F00EC004F03E
:1036F2000FC005F010C006F012000001DD51DF5DC1
:10370200566EDE51E059576E5650585C5750595814
:10371200D8A08EEF1BF090EF1BF096EF1BF05650E7
:10372200585CED6F57505958EE6F5850565C5950CF
:103732005758D8A09FEF1BF0A1EF1BF0A7EF1BF08B
:103742005850565CED6F59505758EE6FEDC003F06C
:10375200EEC004F0056A066A000EA4EC1AF003C07B
:1037620011F004C012F005C013F006C014F0480EA8
:10377200156EE10E166E9A0E176E3F0E186E76ECEF
:1037820013F011C054F112C055F113C056F114C018
:1037920057F10001ED51EF5DEE51F059D8B0D4EF81
:1037A2001BF0D6EF1BF0DAEF1BF0EDC0EFF0EEC02E
:1037B200F0F0D3EC27F003C0D1F004C0D2F005C082
:1037C200D3F006C0D4F0010E010148252A6E000E86
:1037D20049212B6E000E4A212C6E000E4B212D6EBC
:1037E2002A500001D15D2B50D2592C50D3592D5063
:1037F200D459D8A0FFEF1BF001EF1CF04FEF1CF0E3
:10380200D1C048F1D2C049F1D3C04AF1D4C04BF182
:10381200EB4BEC2B400EEB5D9C0EEC59D8A014EF59
:103822001CF016EF1CF04FEF1CF0F05109E10B0EEB
:10383200EF5DD8A01FEF1CF021EF1CF038EF1CF059
:10384200010EC86F000E046E100E036E520E056E4E
:103852002AEC26F0040E2B6ECF0E2A6E020EE82EF4
:10386200FED72A2EFCD72B2EFAD74FEF1CF0F051A1
:1038720007E10B0EEF5DD8B041EF1CF043EF1CF0F7
:103882004FEF1CF0010EC76F000E046E100E036E98
:10389200410E056E2AEC26F02BEF1CF01200000EF2
:1038A200186E000E176E000E116E000E106E5CEF99
:1038B2001CF00A4A0B2A010E166E0AC0F6FF0BC054
:1038C200F7FFF86A0800F550200AD8B46BEF1CF035
:1038D2006DEF1CF08BEF1CF0F70E0C6EFF0E0D6EF1
:1038E2000AC0F6FF0BC0F7FFF86A0800F5500E6E2B
:1038F2000F6A0C500E260D500F220F5009E1050ED3
:103902000E5CD8A087EF1CF089EF1CF08BEF1CF047
:10391200000E166E16C012F0136A12501310D8A4BD
:1039220095EF1CF097EF1CF05AEF1CF0A1EF1CF082
:10393200000E116E010E106E0A4A0B2AD8EF1CF00F
:103942000AC0F6FF0BC0F7FFF86A0800F5500C6ECC
:103952000D6A0D50000AD8B4B1EF1CF0D8EF1CF07C
:103962000C502B0AD8B49DEF1CF0060AD8B499EF7C
:103972001CF0D8EF1CF017C003F018C004F0000EC2
:10398200066E0A0E056E85EC27F00AC0F6FF0BC024
:10399200F7FFF86A0800F550035E000E045A300E75
:1039A2000324176E000E0420186E9DEF1CF0D00E3B
:1039B2000C6EFF0E0D6E0AC0F6FF0BC0F7FFF86A21
:1039C2000800F5500E6E0F6A0C500E260D500F2295
:1039D2000F500AE10A0E0E5CD8A0F2EF1CF0F5EFD0
:1039E2001CF0010EF6EF1CF0000E146E156A145056
:1039F2001510D8A4FFEF1CF001EF1DF0BCEF1CF076
:103A020010501110D8A408EF1DF00AEF1DF018EFA6
:103A12001DF017C00CF018C00DF00C1E0D1E0C4A44
:103A22000D2A0CC00AF00DC00BF01CEF1DF017C0E0
:103A32000AF018C00BF01200053406340C6E0C505C
:103A4200D8A426EF1DF028EF1DF032EF1DF0000E76
:103A5200036E000E046E000E056E000E066E9FEFE2
:103A62001DF003C007F004C008F005C009F006C04D
:103A72000AF0200E42EF1DF0D8900A3209320832C5
:103A82000732E82E3DEF1DF007500B6E058EFF0E3C
:103A92000316FF0E0416FF0E0516000E0616960EEE
:103AA2000C5E0CBE59EF1DF057EF1DF06FEF1DF0CD
:103AB2000C50800A970FD8B061EF1DF063EF1DF034
:103AC20065EF1DF028EF1DF0D89006320532043262
:103AD20003320C3E65EF1DF087EF1DF01F0E0C64E4
:103AE20075EF1DF077EF1DF07FEF1DF028EF1DF051
:103AF200D89003360436053606360C060C50D8A488
:103B020085EF1DF087EF1DF079EF1DF00B50D8B453
:103B12008DEF1DF08FEF1DF097EF1DF0061E051EB5
:103B2200041E036C000E04220522062203C003F0C9
:103B320004C004F005C005F006C006F01200000E35
:103B42002A14326E000E2B14336E800E2C14346E37
:103B52007F0E2D14356E3250331034103510D8A428
:103B6200B5EF1DF0B7EF1DF0BFEF1DF0000E2A6E8E
:103B7200000E2B6E000E2C6E000E2D6E000E2E14FB
:103B8200326E000E2F14336E800E3014346E7F0EA0
:103B92003114356E3250331034103510D8A4D4EFAE
:103BA2001DF0D6EF1DF0DEEF1DF0000E2E6E000EA2
:103BB2002F6E000E306E000E316E2DAEE3EF1DF053
:103BC200E5EF1DF0EEEF1DF02A6C2B1ED8B02B2A6C
:103BD2002C1ED8B02C2A800E2D5631AEF3EF1DF0DC
:103BE200F5EF1DF0FEEF1DF02E6C2F1ED8B02F2A20
:103BF200301ED8B0302A800E3156000E2A1A000E1E
:103C02002B1A000E2C1A800E2D1A000E2E1A000EE0
:103C12002F1A000E301A800E311A2E502A5C2F50A5
:103C22002B5830502C5831502D58D8B01BEF1EF065
:103C32001DEF1EF020EF1EF0D89021EF1EF0D8806D
:103C420012003CC10DF03DC10EF03EC10FF03FC16C
:103C520010F003C00DF004C00EF005C00FF006C056
:103C620010F00DC007F00EC008F00FC009F010C030
:103C72000AF0180E42EF1EF0D8900A3209320832CA
:103C82000732E82E3DEF1EF007500B6E0C6A0B5008
:103C92000C10D8A44FEF1EF051EF1EF071EF1EF082
:103CA200D8900D34076E0E34086E0F34096E10343E
:103CB2000A6E0750081009100A10D8A463EF1EF00C
:103CC20065EF1EF06BEF1EF0000E046E020E036E27
:103CD200A0EF1EF0000E046E030E036EA0EF1EF0A6
:103CE2000B280C10D8A478EF1EF07AEF1EF09CEF90
:103CF2001EF00DC007F00EC008F00FC009F010C092
:103D02000AF0090ED8900736083609360A36E82E28
:103D120083EF1EF00750081009100A10D8B494EF70
:103D22001EF097EF1EF0010E98EF1EF0000E036ECC
:103D3200046AA0EF1EF0000E046E040E036E120061
:103D4200000E1B6E000E1A6E000E1C6E000E1D6E13
:103D5200000E1E6E000E1F6E000E176E000E166E07
:103D6200000E206E020EB9EC27F025EC28F00009B7
:103D7200D8B4BEEF1EF0C0EF1EF0B6EF1EF02FEC6F
:103D820028F003C018F004C019F00001F751020D29
:103D9200000EF324D96E010EF420DA6E18C0DEFF95
:103DA20019C0DDFFF72B130EF765DAEF1EF0DCEF1B
:103DB2001EF0DEEF1EF0000EF76F000E206E205098
:103DC200020D000EF324D96E010EF420DA6EDECF5E
:103DD20012F0DDCF13F012501C241C6E13501D2064
:103DE2001D6E000E1E201E6E000E1F201F6E202A4A
:103DF200130E2064FFEF1EF001EF1FF0E0EF1EF044
:103E02001CC003F01DC004F01EC005F01FC006F068
:103E1200140E076E000E086E000E096E000E0A6E7A
:103E220060EC23F003C01AF004C01BF01AC010F0BB
:103E32001BC011F012000001DD51DF5D566EDE5134
:103E4200E059576E5650585C57505958D8A02CEF2D
:103E52001FF02EEF1FF034EF1FF05650585CED6F3D
:103E620057505958EE6F5850565C59505758D8A071
:103E72003DEF1FF03FEF1FF045EF1FF05850565C2B
:103E8200ED6F59505758EE6FEE5109E1030EED5D9B
:103E9200D8A04EEF1FF050EF1FF052EF1FF0010EAF
:103EA200C66FD3EC27F003C0D5F004C0D6F005C02E
:103EB200D7F006C0D8F0010E01014C25076E000EA6
:103EC2004D21086E000E4E21096E000E4F210A6E22
:103ED20007500001D55D0850D6590950D7590A50EC
:103EE200D859D8A077EF1FF079EF1FF094EF1FF0A9
:103EF200D5C04CF1D6C04DF1D7C04EF1D8C04FF16C
:103F0200E74BE82B100EE75D270EE859D8A08CEF9F
:103F12001FF08EEF1FF094EF1FF0010EC66F000E20
:103F2200F06F000EEF6F120020EE13F0070EDE6A44
:103F3200E806FDE20B500C100D100E100F101010C1
:103F420011101210D8B4A8EF1FF0AAEF1FF0FCEF67
:103F52001FF0010E1B6EB8EF1FF0D8900B360C3617
:103F62000D360E360F361036113612361B2A12AEA9
:103F7200BDEF1FF0BFEF1FF0AEEF1FF0D89013366A
:103F82001436153616361736183619361A360B50B9
:103F9200035C0C5004580D5005580E5006580F5033
:103FA2000758105008581150095812500A58D8A0F2
:103FB200DDEF1FF0DFEF1FF0F0EF1FF00B50035E9D
:103FC2000C50045A0D50055A0E50065A0F50075AFB
:103FD2001050085A1150095A12500A5A1380D89098
:103FE2001232113210320F320E320D320C320B32CB
:103FF2001B2EBFEF1FF013C003F014C004F015C056
:1040020005F016C006F017C007F018C008F019C076
:1040120009F01AC00AF0120003C00AF004C00BF043
:1040220005C00CF006C00DF00706D8A00806072848
:1040320006E10828D8A420EF20F022EF20F02FEF8D
:1040420020F0000E046E000E036E7AEF20F00A4A92
:104052000B2A0C4A0D2A0706D8A008060AC0D9FF67
:104062000BC0DAFFDF50D8B439EF20F03BEF20F07D
:1040720068EF20F00CC0F6FF0DC0F7FFF86A0800E9
:10408200F5500009D8B448EF20F04AEF20F068EF6D
:1040920020F007500810D8B451EF20F053EF20F071
:1040A20068EF20F00AC0D9FF0BC0DAFFDF50096EBB
:1040B2000CC0F6FF0DC0F7FFF86A0800F5500918AA
:1040C200D8B466EF20F068EF20F028EF20F00AC0A5
:1040D200D9FF0BC0DAFFDF50096E0CC0F6FF0DC02E
:1040E200F7FFF86A0800F550095C036E046AD8A06D
:1040F200040612000B500C100D100E100F101010B1
:1041020011101210D8B488EF20F08AEF20F0D2EF0D
:1041120020F0010E136E98EF20F0D8900B360C367B
:104122000D360E360F36103611361236132A12AEEF
:104132009DEF20F09FEF20F08EEF20F00B50035CFC
:104142000C5004580D5005580E5006580F50075881
:10415200105008581150095812500A58D8A0B4EFFC
:1041620020F0B6EF20F0C6EF20F00B50035E0C50AB
:10417200045A0D50055A0E50065A0F50075A105045
:10418200085A1150095A12500A5AD8901232113252
:1041920010320F320E320D320C320B32132E9FEFD1
:1041A20020F003C003F004C004F005C005F006C00F
:1041B20006F007C007F008C008F009C009F00AC0FD
:1041C2000AF0120005500610D8B4EAEF20F0ECEF26
:1041D20020F0F5EF20F005500610D8A4F3EF20F000
:1041E200F5EF20F0FAEF20F003506BEC28F047EFE8
:1041F20021F020EE04F00550D9260650DA22DE50D6
:10420200DE10D8B407EF21F009EF21F024EF21F0FE
:1042120020EE04F00550D9260650DA2210EE02F004
:104222000550E1260650E222DE50E65CE650800AA6
:104232000B6EDE50800A0B58D8B022EF21F024EF2B
:1042420021F047EF21F020EE02F00550D92606506A
:10425200DA22DECF07F0DDCF08F005C0D9FF06C0B5
:10426200DAFFDECF09F0DDCF0AF007500924D96E5C
:1042720008500A20DA6E03C0DFFF20EE02F005507C
:10428200D9260650DA22DE2A000EDD2212000001B3
:10429200E5A14EEF21F050EF21F05AEF21F015C0C9
:1042A2000CF016C00DF013C00EF014C00FF008ECA5
:1042B20026F018BE5FEF21F061EF21F067EF21F0E9
:1042C20017C01CF018C01DF06BEF21F0000E1D6E20
:1042D200000E1C6E000E1B6E000E1A6E7DEF21F09A
:1042E200000E046E200E036E13C005F014C006F01B
:1042F200E3EC20F01A4A1B2A1C501A5C1B50800A5D
:10430200196E1D50800A1958D8A08AEF21F08CEF3F
:1043120021F071EF21F00001E5B192EF21F094EF6D
:1043220021F09EEF21F015C00CF016C00DF013C065
:104332000EF014C00FF008EC26F015C003F016C002
:1043420004F050EC27F01C500324136E1D5004207F
:10435200146E1200000E086E06BEB4EF21F0B2EF2A
:1043620021F0BAEF21F0056C061ED8B0062A010E24
:10437200086E04BEC1EF21F0BFEF21F0C7EF21F0BC
:10438200036C041ED8B0042A010E081A000E0A6E2D
:10439200000E096E05500610D8B4D2EF21F0D4EF0A
:1043A20021F0FCEF21F0010E076EDCEF21F0D89036
:1043B20005360636072A06AEE1EF21F0E3EF21F0DB
:1043C200D8EF21F0D89009360A360550035C065022
:1043D2000458D8A0EFEF21F0F1EF21F0F6EF21F031
:1043E2000550035E0650045A0980D8900632053201
:1043F200072EE3EF21F00850D8B402EF22F004EFC9
:1044020022F008EF22F0096C0A1ED8B00A2A09C06D
:1044120003F00AC004F01200000E086E04BE16EF8C
:1044220022F014EF22F01CEF22F0036C041ED8B02D
:10443200042A010E086E06BE23EF22F021EF22F0BD
:1044420027EF22F0056C061ED8B0062A055006108A
:10445200D8B42EEF22F030EF22F054EF22F0010E0A
:10446200076E38EF22F0D89005360636072A06AED8
:104472003DEF22F03FEF22F034EF22F00550035CD3
:1044820006500458D8A048EF22F04AEF22F04EEF2F
:1044920022F00550035E0650045AD89006320532C7
:1044A200072E3FEF22F00850D8B45AEF22F05CEF0B
:1044B20022F060EF22F0036C041ED8B0042A03C07D
:1044C20003F004C004F01200000E03140B6E000E81
:1044D20004140C6E800E05140D6E7F0E06140E6E03
:1044E2000B500C100D100E10D8A47AEF22F07CEFB6
:1044F20022F084EF22F0000E036E000E046E000E16
:10450200056E000E066E000E07140B6E000E0814E8
:104512000C6E800E09140D6E7F0E0A140E6E0B5077
:104522000C100D100E10D8A499EF22F09BEF22F080
:10453200A3EF22F0000E076E000E086E000E096E49
:10454200000E0A6E075003180FE1085004180CE120
:104552000950051809E10A500618D8B4B3EF22F041
:10456200B5EF22F0B8EF22F0D890B9EF22F0D88060
:1045720012000001C405D8A4C1EF22F0C3EF22F05B
:10458200CDEF22F0000EC76F000EC86F000EC56F90
:10459200000EC66FB2EC23F00001C505D8A4D4EF1B
:1045A20022F0D6EF22F0E0EF22F0000EC46F000EF0
:1045B200C76F000EC86F000EC66F1CEC1FF0000123
:1045C200C605D8A4E7EF22F0E9EF22F0F3EF22F0DC
:1045D200000EC46F000EC76F000EC86F000EC56FCD
:1045E2007EEC1BF084B0F8EF22F0FAEF22F00DEF30
:1045F20023F0000E046E100E036E000E056E2AEC00
:1046020026F0020E2F6E450E2E6EAA0EE82EFED753
:104612002E2EFCD72F2EFAD71200ECEC27F00FEC3F
:1046220028F098EC27F061EC28F0000E046E100ED2
:10463200036EF8EC27F05A6E040E0E6ECF0E0D6E5E
:10464200020EE82EFED70D2EFCD70E2EFAD7520EF2
:104652005A18D8A42FEF23F031EF23F03EEF23F0C6
:10466200000E0001C46F000EC76F010EC86F000E6E
:10467200C56F000EC66F5FEF23F0410E5A18D8A423
:1046820045EF23F047EF23F054EF23F0000E000133
:10469200C46F010EC76F000EC86F000EC56F000E0B
:1046A200C66F5FEF23F0010E0001C46F000EC76FEB
:1046B200000EC86F000EC56F000EC66F1200000E0E
:1046C2000B6E000E0C6E000E0D6E000E0E6E07507D
:1046D200081009100A10D8B471EF23F073EF23F019
:1046E200A9EF23F0010E0F6E7DEF23F0D89007366D
:1046F200083609360A360F2A0AAE82EF23F084EF13
:1047020023F077EF23F0D8900B360C360D360E36A9
:104712000750035C08500458095005580A500658BF
:10472200D8A096EF23F098EF23F0A1EF23F00750E3
:10473200035E0850045A0950055A0A50065A0B8063
:10474200D8900A320932083207320F2E84EF23F052
:104752000BC003F00CC004F00DC005F00EC006F053
:1047620012000001DD51DF5D566EDE51E059576ED9
:10477200D3EC27F003C0D9F004C0DAF005C0DBF0B7
:1047820006C0DCF0010E01015025076E000E51211A
:10479200086E000E5221096E000E53210A6E075058
:1047A2000001D95D0850DA590950DB590A50DC5929
:1047B200D8A0DEEF23F0E0EF23F0FBEF23F0D9C027
:1047C20050F1DAC051F1DBC052F1DCC053F1E94BD8
:1047D200EA2B100EE95D270EEA59D8A0F3EF23F079
:1047E200F5EF23F0FBEF23F056C058F057C059F015
:1047F200010EC56F1200D3EC27F003C0C9F004C04C
:10480200CAF005C0CBF006C0CCF0010E0101402574
:10481200076E000E4121086E000E4221096E000E45
:1048220043210A6E07500001C95D0850CA59095058
:10483200CB590A50CC59D8A021EF24F023EF24F011
:104842003CEF24F0C9C040F1CAC041F1CBC042F1F3
:10485200CCC043F18DB230EF24F033EF24F0010EDF
:1048620034EF24F0000EFF0A076E07468D5007183A
:10487200FD0B07188D6E1200000E39EC25F0340E78
:10488200066EF20EE82EFED7062EFCD7030EA9EC1A
:1048920027F00D0E066EFC0EE82EFED7062EFCD774
:1048A200030EA9EC27F01D0E066E910EE82EFED720
:1048B200062EFCD700F0030EA9EC27F0020EA9EC9D
:1048C20027F0020EA9EC27F0080EA9EC27F0000E43
:1048D200A9EC27F00C0EA9EC27F0000EA9EC27F0AA
:1048E200060EA9EC27F01200076E0704D8A47CEF8D
:1048F20024F07EEF24F08FEF24F006507F0F0A6E33
:104902000A380F0B086E0A500F0B096E0850A9ECFB
:1049120027F00950A9EC27F0A7EF24F0020E0718A0
:10492200D8A496EF24F098EF24F0A7EF24F00650D5
:10493200BF0F0A6E0A380F0B086E0A500F0B096E72
:104942000850A9EC27F00950A9EC27F012004EC03C
:1049520052F04FC053F0000E0001E26F000EE16F03
:10496200C6EF24F04CC042F04DC043F0520E446EEC
:10497200000E456E50C046F051C047F0A1EC0DF05C
:1049820042500001E1274350E22352C0F6FF53C0D8
:10499200F7FFF86A0800F5500009D8A4D3EF24F015
:1049A200D5EF24F0B3EF24F0E1C04CF0E2C04DF0BB
:1049B2001200BF0E0B6EFF0E0C6E09C00DF00AC086
:1049C2000EF00B500D260C500E220E500AE11A0E5C
:1049D2000D5CD8A0EFEF24F0F2EF24F0010EF3EF1C
:1049E20024F0000E0F6E106A0F501010D8B4FCEFB6
:1049F20024F0FEEF24F005EF25F0200E0910096ED9
:104A02000A500A6E09EF25F009C009F00AC00AF03F
:104A1200120005C009F006C00AF003C00BF004C082
:104A22000CF00950076E0A50086E094A0A2A07C09C
:104A3200F6FF08C0F7FF000EF86E0BC0D9FF0CC0DE
:104A4200DAFF0B4A0C2A0E0EF76403D00800F55069
:104A520005D0F6CFE9FFF7CFEAFFEF50DF6EDF5068
:104A6200D8A436EF25F038EF25F012EF25F012002A
:104A7200036E03A03FEF25F041EF25F044EF25F050
:104A82008C8845EF25F08C9803A24AEF25F04CEF75
:104A920025F04FEF25F08C8A50EF25F08C9A03A475
:104AA20055EF25F057EF25F05AEF25F08C8C5BEF90
:104AB20025F08C9C03A660EF25F062EF25F065EFF0
:104AC20025F08C8E66EF25F08C9E1200D20EF66ECB
:104AD200500EF76E000EF86E0900F5CFE0F10900F6
:104AE200F5CFE1F1DA0EF66E500EF76E000EF86EAB
:104AF2000900F5CFFFF001EE00F0D80EEE6AE806ED
:104B0200FDE100EEC4F0390EEE6AE806FDE100EECA
:104B120054F0070EEE6AE806FDE15B905B9200013D
:104B2200E0EF27F0B40E0001BC6F000EBD6FB0C005
:104B3200BEF0B1C0BFF0000EC16F000EC06F000E1C
:104B4200C36F000EC26FBE0E4C6E000E4D6EB2C031
:104B52004EF0B3C04FF0BC0E506E000E516EA8EC7A
:104B620024F00001C051B025D96EC151B121DA6ED5
:104B7200000EDF6E1200010E096E200E03180410E3
:104B8200D8B4C6EF25F0C8EF25F0E1EF25F0F70E17
:104B9200056EFF0E066E03C007F004C008F0055054
:104BA200072606500822085009E1050E075CD8A026
:104BB200DDEF25F0DFEF25F0E1EF25F0000E096EC5
:104BC20009C003F0046A1200000E2E1A000E2F1AFA
:104BD200000E301A800E311A2AC003F02BC004F0E6
:104BE2002CC005F02DC006F02EC007F02FC008F033
:104BF20030C009F031C00AF016EC11F003C02AF0FF
:104C020004C02BF005C02CF006C02DF01200000EDF
:104C1200126E000E116E19EF26F010C003F0046A36
:104C22000EC005F00FC006F0E3EC20F0114A122A84
:104C320011500C24D96E12500D20DA6EDF50106E16
:104C42001050D8A427EF26F029EF26F00EEF26F019
:104C52001200000EF2BE010E066E0450030B756EBA
:104C620003C074FF05C073FF7F9E7F9C7F84F29E0A
:104C7200550E7E6EAA0E7E6E7F827FB243EF26F0C5
:104C820045EF26F03EEF26F07F9406B002D0F29E6A
:104C920001D0F28E12000001F151F211D8B454EF9A
:104CA20026F056EF26F06BEF26F0010E0B6EF1C0E8
:104CB2000CF0F2C00DF0010EC6EC27F0010E0B6EE7
:104CC200100E0001F1250C6E000EF2210D6E020E87
:104CD200C6EC27F01200000E0A6E000E096E7DEF80
:104CE20026F009500724D96E0A500820DA6EDF50E8
:104CF20019EC27F0094A0A2A09500724D96E0A50EA
:104D02000820DA6EDF50D8A489EF26F08BEF26F068
:104D120072EF26F01200F2940001FE51D76EFDC030
:104D2200D6FF0101DA51DB11D8B49AEF26F09CEFDD
:104D320026F0A8EF26F002D8A8EF26F00500FA6EBA
:104D4200DA51FD6EDB51FE6EFF6AFA50120012005C
:104D5200D59CF60ED76E3B0ED66ED650D7CF05F049
:104D6200066A05C006F0056A05100001FD6F0650CF
:104D7200FE6FF294F28AD80E036E500E046E58EC57
:104D820028F09F0ED56E1200BF0E056EFF0E066E46
:104D920003C007F004C008F0055007260650082299
:104DA20008500AE11A0E075CD8A0DAEF26F0DDEF10
:104DB20026F0010EDEEF26F0000E036E046A1200EA
:104DC2000350041005100610D8B4EAEF26F0ECEFF9
:104DD20026F0F4EF26F0000E031A000E041A000E5D
:104DE200051A800E061A03C003F004C004F005C0C1
:104DF20005F006C006F01200D00E056EFF0E066E1C
:104E020003C007F004C008F0055007260650082228
:104E120008500AE10A0E075CD8A012EF27F015EF3E
:104E220027F0010E16EF27F0000E036E046A12003F
:104E3200066E06500F0B046E0650F00B056E8C8248
:104E420005380F0B39EC25F08C861A0EE82EFED7AA
:104E520000D08C96045039EC25F08C861A0EE82E80
:104E6200FED700D08C961200000E8D6E000E8C6E56
:104E7200000E896E000E8A6E000E8B6E050E966E07
:104E8200EF0E926E93689468010E956EDF0E0F011D
:104E92005D6F7F0E5C6F000E5B6FF18E120003C0C0
:104EA20005F004C006F058EF27F0034A042A03C0B5
:104EB200D9FF04C0DAFFDF50D8A462EF27F064EF15
:104EC20027F056EF27F00550035C036E0650045896
:104ED200046E1200030EB9EC27F025EC28F000094D
:104EE200D8B476EF27F078EF27F06EEF27F02FECAB
:104EF20028F003C0DFF004C0E0F0A1EC1EF010C007
:104F0200DDF011C0DEF0120003500502F3CF07F00E
:104F1200F4CF08F003500602F350082604500502AD
:104F2200F350082607C003F008C004F012003DEC5D
:104F320024F061EC28F0010E0B6E010E4AEC28F011
:104F42005DEC28F0000E0001F16F000EF26F12000E
:104F5200056E8C92055039EC25F08C860B0E046E92
:104F6200620EE82EFED7042EFCD700D08C961200DB
:104F7200046E04C003F003460346C2500318830BB9
:104F82000318C26EC280C28212000E6E0BC006F0FF
:104F92000E5075EC24F00CC007F00DC008F06CEC5C
:104FA20026F01200D8C1D9FFD9C1DAFFDECF03F053
:104FB200DECF04F0DECF05F0DECF06F0120004EC07
:104FC20028F0F28EF28C0EEC23F01AEC28F0E6EFC9
:104FD20027F01FEF00F0F90E0101D86F000ED96F14
:104FE200840E036E500E046E58EC28F0120004502A
:104FF200030B756E03C074FF7F9C7F9E7F8000F061
:1050020000F07350120067EC28F035EC27F039EC11
:1050120028F00FEC28F0A9EC26F01200790EC26EEF
:10502200000EC16EBA0EC06E000EC46E000EC36ECC
:10503200120064EC28F06BEC27F058EC17F0BAEC95
:1050420022F0FCEC23F01200C2A22AEF28F02DEF8E
:1050520028F0010E2EEF28F0000E1200C450066E4A
:10506200056AC3500524036E000E0620046E12006A
:10507200600ED36E000ED26E000E9B6E000E9A6E04
:105082001200010E0001F927000EFA23FB23FC2374
:1050920012000C6E0BC006F00C5075EC24F01200DE
:1050A200000EA9EC27F0010EA9EC27F0120003C0B4
:1050B200DAF104C0DBF11200010E6AEC28F01200F2
:1050C20051EC28F012004CEC26F01200D09E120097
:0950D2001000120012001200553A
:020000040020DA
:08000000FFFFFFFFFFFFFFFF00
:020000040030CA
:0E00000015037F7CFF8991FF0FC00FE00F40BA
:00000001FF
